:020000040000FA
:100000000C94AC010C94DD010C94DD010C94DD0129
:100010000C94DD010C94DD010C94DD010C94DD01E8
:100020000C94DD010C94DD010C94DD010C94DD01D8
:100030000C94DD010C9416080C94DD010C94DD0188
:100040000C94DD010C9469080C94DD010C94DD0125
:100050000C94DD010C94C8080C94DD010C94460747
:100060000C94DD010C9436060C940C060C94DD0106
:100070000C94DD010C94DD010C94DD010C94DD0188
:100080000C94DD010C94DD010C94DD010C94DD0178
:100090000C94DD010C94DD010C94DD010C94DD0168
:1000A0000C94DD010C94DD010C94DD010C94DD0158
:1000B0000C94DD010C94DD010C94DD010C94DD0148
:1000C0000C94DD010C94DD010C94DD010C94DD0138
:1000D0000C94DD010C94DD010C94DD010C94DD0128
:1000E0000C94DD01220E370ED60E0B0F280F9B0F3E
:1000F000C80F22107D10A0101E1162112512BC1015
:10010000BF10C210C510B910F510CC10D210D51008
:10011000D810E210E910BC10DB10E210E910BF109B
:10012000C210C510F510CC10CF10CF10D210D510C2
:10013000D810DB10E210E910EC10EF10F210F510FF
:100140009B069E068D0691069506D506A206A60676
:10015000AC06B006B406BA06BE06C206D506C80688
:10016000CC06D0060C94B9100C947D100C94F210AF
:100170000C943E090C94E9100C94C8060C94AC063F
:100180000C94370E0C9491060C948D060C94E2108E
:100190000C94D5100C94CC060C94F5100C94EF1024
:1001A0000C940B0F0C94E1040C94DB100C94D0060F
:1001B0000C94D8100C9462110C94280F0C94950692
:1001C0000C94D2040C94BC100C9409060C940305F6
:1001D0000C943B050C9410080C94C80F0C94BA06B0
:1001E0000C9425120C94BE060C94D2100C949E060E
:1001F0000C941E110C94B4060C949B0F0C94A60640
:100200000C94D5060C94CF100C94A2060C94C20644
:100210000C94A0100C942C140C94CC100C94880505
:100220000C94F5040C94D60E0C94C5100C94C210CA
:100230000C9408060C949B060C94BF100C94220E90
:100240000C94EC100C9422100C94B00602010000E7
:10025000002200250028002B002E0031003400026F
:10026000010000050108010B010000210024002706
:10027000002A002D003000330001010000040107B6
:10028000010A01050505050705080808080202021C
:10029000020A0A0808040404040101010101010121
:1002A000010303030303030303040707070C0C0CF8
:1002B0000C0C0C0C0C0202020206060606060606D0
:1002C000060B0B0B0B0B0B0B0B010210202008086D
:1002D00010204010204080020102010804020101A8
:1002E0000204081020408080402010080402018091
:1002F00004020180402010080402010804020101E8
:1003000002040810204080010204081020408000F0
:10031000000A0B02090C0D0E08070304010000007F
:1003200000000000000000000000000000000000CD
:10033000000000000000000000000012111000008A
:1003400000000000000000000000000000000000AD
:100350000000000000002C1411241FBECFEFD1E2DA
:10036000DEBFCDBF00E00CBF12E0A0E0B2E0E2EEE5
:10037000FBE200E00BBF02C007900D92A435B1076D
:10038000D9F723E0A4E5B2E001C01D92AF38B2076F
:10039000E1F711E0CCEAD1E000E006C021970109C5
:1003A000802FFE010E94C715CB3AD10780E00807D5
:1003B000A9F70E94DE0B0C94EF150C94000082301C
:1003C000910509F450C03CF4009709F48EC00197E0
:1003D00009F46AC008958330910521F1049709F06A
:1003E000A6C062307105A9F03CF46115710559F0A1
:1003F0006130710559F008956330710569F064301A
:10040000710569F0089560E089E28FC060E08AE2DA
:100410008CC060E08BE289C060E08CE286C060E066
:100420008DE283C062307105A9F03CF4611571055D
:1004300059F06130710559F008956330710569F024
:100440006430710569F0089560E084E26EC060E098
:1004500085E26BC060E086E268C060E087E265C06C
:1004600060E088E262C062307105A9F03CF4611579
:10047000710559F06130710559F0089563307105C7
:1004800069F06430710569F0089560E08FE14DC056
:1004900060E080E24AC060E081E247C060E082E262
:1004A00044C060E083E241C062307105A9F03CF4D1
:1004B0006115710559F06130710559F00895633087
:1004C000710569F06430710569F0089560E08AE1B2
:1004D0002CC060E08BE129C060E08CE126C060E0C8
:1004E0008DE123C060E08EE120C062307105A9F08B
:1004F0003CF46115710559F06130710559F00895AA
:100500006330710569F06430710569F0089560E049
:1005100087E00BC060E086E108C060E087E105C0CD
:1005200060E088E102C060E089E10C946C06089507
:100530008230910591F02CF4009749F0019751F029
:1005400008958330910561F0049769F0089561E0A2
:1005500086E00BC061E085E008C061E084E005C092
:1005600061E083E002C061E082E00C946C0690E000
:10057000FC01E753FD4F2491FC01ED57FD4F8491A1
:10058000882399F090E0880F991FFC01E759FD4FEF
:10059000A591B491FC01E15BFD4F859194918FB7DA
:1005A000F894EC91E22BEC938FBF0895CF93DF93F7
:1005B000823028F090916F03986090936F0380933E
:1005C00073031092740380E48093750380E1809339
:1005D000760380E580937703809164030E94B702DD
:1005E000809165038F3F11F00E94B70280916603EE
:1005F0000E94B702C0E6D3E09E01205633408091AE
:100600006F0384FD03C084E090E002C088E090E0C6
:1006100021962817390724F48E810E94B702ECCF67
:100620008BE39DE00197F1F760E0809164030E9405
:100630006C0660E0809166030E946C068091650301
:100640008F3F19F060E00E946C0660916F0364FDBB
:1006500020C063E080E693E00E949007CBE4D6E4FC
:10066000CE010197F1F763E080E693E00E949007E6
:100670002197F1F763E080E693E00E94900783E51D
:1006800092E00197F1F762E080E693E00E94900724
:100690001EC0606240E080E693E00E94BD078BE4EC
:1006A00096E40197F1F760916F03606240E080E6A5
:1006B00093E00E94BD0783E592E00197F1F7609116
:1006C0006F03606240E080E693E00E94BD076091A6
:1006D0006F03606240E080E693E00E94BD0784E023
:1006E0008093700340E06CE080E693E00E94BD07D9
:1006F00040E061E080E693E00E94BD078BE39FE16C
:100700000197F1F782E08093710340E066E080E6B4
:1007100093E0DF91CF910C94BD07EDE7F2E0A08963
:10072000B18982E08C93A485B5851C92A685B78596
:100730008FEC8C93108EA489B58986E08C93A28966
:10074000B3898C9180618C93A289B3898C918860E4
:100750008C93A289B3898C9180688C930288F389E9
:10076000E02D80818F7D80830895CF93DF93EA0110
:100770000E94DF01CE01DF91CF910C949802EF929D
:10078000FF920F931F93CF938C017B01C2E061E036
:100790008C2F0E946C06CF5FC730C9F7B701C80124
:1007A000CF911F910F91FF90EF900C94DF010F9369
:1007B0001F93CF938B0182309105F1F034F40097B1
:1007C00061F10197B1F5CAE120C08330910559F07C
:1007D000049779F5C9E260E08C2F0E946C06CF5F28
:1007E000CE32C9F726C0C4E260E08C2F0E946C06AE
:1007F000CF5FC932C9F71DC0CFE160E08C2F0E94E6
:100800006C06CF5FC432C9F714C060E08C2F0E9421
:100810006C06CF5FCF31C9F70CC060E087E00E9463
:100820006C06C6E160E08C2F0E946C06CF5FCA3177
:10083000C9F7C801CF911F910F910C949802CF93E3
:100840008230910559F12CF4009749F00197E9F0B5
:100850001AC08330910559F1049791F114C060E0FA
:1008600087E00E946C0660E08AE10E946C0660E00E
:100870008FE10E946C0660E084E20E946C0660E0FA
:1008800089E20E946C06C2E024C0C6E160E08C2FC1
:100890000E946C06CB5FCF32C9F7F5CFC7E160E0AD
:1008A0008C2F0E946C06CB5FC033C9F7ECCFC8E138
:1008B00060E08C2F0E946C06CB5FC133C9F7E3CF99
:1008C000C9E160E08C2F0E946C06CB5FC233C9F790
:1008D000DACF61E08C2F0E946C06CF5FC730C9F77A
:1008E000CF9108951F93CF93DF93EC0112E061E065
:1008F000812F0E946C061F5F1730C9F7C230D105E7
:10090000F1F034F4209761F12197B1F5CAE120C0EC
:10091000C330D10559F0249779F5C9E260E08C2FF6
:100920000E946C06CF5FCE32C9F726C0C4E260E0F9
:100930008C2F0E946C06CF5FC932C9F71DC0CFE172
:1009400060E08C2F0E946C06CF5FC432C9F714C0E0
:1009500060E08C2F0E946C06CF5FCF31C9F70CC0CE
:1009600060E087E00E946C06C6E160E08C2F0E9488
:100970006C06CF5FCA31C9F7DF91CF911F910895FF
:10098000009769F0FC0101900020E9F73197AF0171
:10099000481B590BBC018DE792E00C943E0980E0A6
:1009A00090E00895FC01538D448D252F30E0842F75
:1009B00090E0821B930B541710F0CF960895019787
:1009C0000895FC01918D828D981761F0828DDF0171
:1009D000A80FB11D5D968C91928D9F5F9F73928F32
:1009E00090E008958FEF9FEF0895FC01918D828D27
:1009F000981731F0828DE80FF11D858D90E00895F4
:100A00008FEF9FEF0895FC01918D228D892F90E04B
:100A1000805C9F4F821B91098F73992708958DE702
:100A200092E00E94030521E0892B09F420E0822F47
:100A30000895FC01848DDF01A80FB11DA35ABF4F9B
:100A40002C91848D90E001968F739927848FA689CD
:100A5000B7892C93A089B1898C91837080648C9321
:100A6000938D848D981306C00288F389E02D8081D0
:100A70008F7D80830895EF92FF920F931F93CF9302
:100A8000DF93EC0181E0888F9B8D8C8D981305C0DE
:100A9000E889F989808185FD26C0F62E0B8D10E04E
:100AA0000F5F1F4F0F731127E02E8C8DE8120CC0C3
:100AB0000FB607FCFACFE889F989808185FFF5CF69
:100AC000CE010E941905F1CF8B8DFE01E80FF11DBB
:100AD000E35AFF4FF0829FB7F8940B8FEA89FB89A6
:100AE000808180620AC09FB7F894EE89FF89608395
:100AF000E889F98980818370806480839FBF81E069
:100B000090E0DF91CF911F910F91FF90EF900895AA
:100B1000CF93DF93EC01888D8823C9F0EA89FB89A4
:100B2000808185FD05C0A889B9898C9186FD0FC09B
:100B30000FB607FCF5CF808185FFF2CFA889B98970
:100B40008C9185FFEDCFCE010E941905E7CFDF9193
:100B5000CF91089580E090E0892B21F00E940F054D
:100B6000811125C080E090E0892B41F080E090E089
:100B7000892B21F00E94000081111CC080E090E0D0
:100B8000892B41F080E090E0892B21F00E94000049
:100B9000811113C080E090E0892BA1F080E090E00B
:100BA000892B81F00E94000081110AC008950E94E3
:100BB0000000D8CF0E940000E1CF0E940000EACFE1
:100BC0000C94000008953FB7F89480917D039091B4
:100BD0007E03A0917F03B091800326B5A89B05C03A
:100BE0002F3F19F00196A11DB11D3FBFBA2FA92FAC
:100BF000982F8827820F911DA11DB11DBC01CD0129
:100C000042E0660F771F881F991F4A95D1F7089514
:100C1000089580E090E008951F920F920FB60F9212
:100C200011240BB60F922F933F934F935F936F93C3
:100C30007F938F939F93AF93BF93EF93FF938DE732
:100C400092E00E941905FF91EF91BF91AF919F91A2
:100C50008F917F916F915F914F913F912F910F9065
:100C60000BBE0F900FBE0F901F9018951F920F9202
:100C70000FB60F9211240BB60F922F938F939F9361
:100C8000EF93FF93E0918D02F0918E028081E091CD
:100C90009302F091940282FD12C09081809196029D
:100CA0008F5F8F7320919702821751F0E091960227
:100CB000F0E0E358FD4F958F8093960201C080814C
:100CC000FF91EF919F918F912F910F900BBE0F90FD
:100CD0000FBE0F901F901895362F90E0FC01E15F3A
:100CE000FC4F4491FC01E753FD4F2491FC01ED576B
:100CF000FD4F9491992309F46CC0442309F455C025
:100D000050E0FA013197E231F10508F04EC0882732
:100D1000E056FF4F8F4F0C94C715809180008F775E
:100D200007C0809180008F7D03C080918000877F05
:100D3000809380003AC084B58F7702C084B58F7DE0
:100D400084BD33C08091B0008F7703C08091B00024
:100D50008F7D8093B00029C0809190008F7707C06D
:100D6000809190008F7D03C080919000877F809359
:100D700090001BC08091A0008F7707C08091A000D9
:100D80008F7D03C08091A000877F8093A0000DC05D
:100D9000809120018F7707C0809120018F7D03C053
:100DA00080912001877F80932001E92FF0E0EE0FF2
:100DB000FF1FE15BFD4FA591B4919FB7F8943111EE
:100DC00004C08C912095282302C0EC912E2B2C93EB
:100DD0009FBF0895CF93DF93EC0160E08E810E9466
:100DE0006C0661E08E810E946C0660E08E810E943C
:100DF0006C068BE891E00197F1F7DF91CF910895B0
:100E00008F929F92AF92BF92CF92DF92EF92FF921A
:100E10006B017C010E94E3054B015C01C114D1040C
:100E2000E104F104F1F00E94E305DC01CB01881933
:100E30009909AA09BB09883E9340A105B10570F341
:100E400021E0C21AD108E108F10888EE880E83E09B
:100E5000981EA11CB11CC114D104E104F10419F7BE
:100E6000DDCFFF90EF90DF90CF90BF90AF909F903D
:100E70008F9008952FB7F8946091790370917A0359
:100E800080917B0390917C032FBF08951F920F9256
:100E90000FB60F9211242F933F938F939F93AF938D
:100EA000BF938091790390917A03A0917B03B091D5
:100EB0007C033091780323E0230F2D3720F4019633
:100EC000A11DB11D05C026E8230F0296A11DB11D6D
:100ED000209378038093790390937A03A0937B0304
:100EE000B0937C0380917D0390917E03A0917F035A
:100EF000B09180030196A11DB11D80937D03909355
:100F00007E03A0937F03B0938003BF91AF919F9125
:100F10008F913F912F910F900FBE0F901F901895BA
:100F2000CF92DF92EF92FF920F931F93CF93DF93B5
:100F30006C017C0187E0E80EF11CC0E0D0E0062FD8
:100F400010E0B8010C2E02C0759567950A94E2F77F
:100F50006170F70181917F010E946C062196C43077
:100F6000D10579F7C601DF91CF911F910F91FF90C5
:100F7000EF90DF90CF900C94EA06CF92DF92EF9241
:100F8000FF920F931F93CF93DF93EC01F62E642F04
:100F90008C810E946C068D818F3F19F060E00E9469
:100FA0006C068F850F2D10E084FF25C06E0187E051
:100FB000C80ED11CE12CF12CB8010E2C02C0759585
:100FC00067950A94E2F76170F60181916F010E94C2
:100FD0006C06FFEFEF1AFF0A88E0E816F10461F7EC
:100FE000CE01DF91CF911F910F91FF90EF90DF9095
:100FF000CF900C94EA06B80184E0759567958A95C0
:10100000E1F7CE010E9490076F2DCE01DF91CF91C5
:101010001F910F91FF90EF90DF90CF900C9490076D
:1010200041E00E94BD0781E090E008951F920F9279
:101030000FB60F9211240BB60F922F933F938F93FD
:101040009F93AF93BF93EF93FF938091830390910E
:101050008403A0918503B09186030097A105B10593
:1010600091F030915402E0915502F09156022081A6
:1010700023272083181619061A061B069CF40197CD
:10108000A109B1090FC0209170002D7F209370003D
:1010900020915402E0915502F09156023081209542
:1010A000232320838093830390938403A093850359
:1010B000B0938603FF91EF91BF91AF919F918F9174
:1010C0003F912F910F900BBE0F900FBE0F901F906E
:1010D00018951F920F920FB60F9211240BB60F9214
:1010E0008F939F93AF93BF93EF93FF938091870369
:1010F00090918803A0918903B0918A03892B8A2B50
:101100008B2B51F190915702E0915802F0915902C6
:101110008081892780838091870390918803A091A3
:101120008903B0918A03181619061A061B061CF5C6
:101130008091870390918803A0918903B0918A03DD
:101140000197A109B1098093870390938803A09325
:101150008903B0938A030FC080916F008D7F8093C5
:101160006F0080915702E0915802F09159029081EE
:10117000809589238083FF91EF91BF91AF919F91DB
:101180008F910F900BBE0F900FBE0F901F90189570
:101190001F920F920FB60F9211240BB60F928F93DE
:1011A0009F93AF93BF93EF93FF9380918B039091A5
:1011B0008C03A0918D03B0918E03892B8A2B8B2BEE
:1011C00051F190915A02E0915B02F0915C028081B2
:1011D0008927808380918B0390918C03A0918D034C
:1011E000B0918E03181619061A061B061CF580917D
:1011F0008B0390918C03A0918D03B0918E03019786
:10120000A109B10980938B0390938C03A0938D0364
:10121000B0938E030FC080916E008D7F80936E001F
:1012200080915A02E0915B02F0915C02908180957E
:1012300089238083FF91EF91BF91AF919F918F910F
:101240000F900BBE0F900FBE0F901F901895CF936D
:1012500061E087E00E946C06C6E161E08C2F0E948D
:101260006C06CF5FCE32C9F7C2E060E08C2F0E94DF
:101270006C06CF5FC730C9F7CF910895CF92DF9248
:10128000EF92FF920F931F93CF93DF936C017A013C
:101290008B01C0E0D0E0CE15DF0581F0D8016D9163
:1012A0008D01D601ED91FC910190F081E02DC601F8
:1012B0001995892B11F02196EECF7E01C701DF91A0
:1012C000CF911F910F91FF90EF90DF90CF900895F5
:1012D0000E94EA158F929F92AF92BF920F931F9335
:1012E000CF93DF93CDB7DEB7A1970FB6F894DEBFEB
:1012F0000FBECDBF19A2423008F44AE08E010F5D47
:101300001F4F842E912CA12CB12CA50194010E9479
:101310005015E62FB901CA0101501109EA3014F441
:10132000E05D01C0E95CD801EC93232B242B252B35
:1013300061F7C8010E94C004A1960FB6F894DEBF01
:101340000FBECDBFDF91CF911F910F91BF90AF9096
:101350009F908F9008954F925F926F927F928F929D
:101360009F92AF92BF92CF92DF92EF92FF920F9334
:101370001F93CF93DF9300D01F921F92CDB7DEB79C
:101380008C0149835A836B837C83809181030E9403
:10139000B702209182032D83822F8D7F4801A12CDB
:1013A000B12C09F07AC060E072E18AE790E0A50113
:1013B00094010E94721529013A0169017A0181E0C4
:1013C000C81AD108E108F1089FEFC916D104E10459
:1013D000F10409F008F44EC060E472E48FE090E09C
:1013E000A50194010E94721569017A01A1E0CA1A4F
:1013F000D108E108F108BD81B23009F52FEFC2161E
:10140000D104E104F10409F008F43BC160E970ED96
:1014100083E090E0A50194010E94721569017A01B0
:1014200081E0C81AD108E108F1089FEFC916D1047C
:10143000E104F10411F008F0B3C083E027C0AFEF7E
:10144000CA16D104E104F104B9F0B0F068E478EE12
:1014500081E090E0A50194010E94721569017A0172
:10146000B1E0CB1AD108E108F1082D81222309F45B
:101470000AC1D5C081E001C082E0BD81B11106C0C2
:1014800095B5987F892B85BD38C085E09091B100D6
:10149000987F892B8093B10030C060E072E18AE7C9
:1014A00090E0A50194010E94721569017A0181E022
:1014B000C81AD108E108F108C114D10491E0E90685
:1014C000F10488F068E478EE81E090E0A5019401F1
:1014D0000E94721569017A01A1E0CA1AD108E108D7
:1014E000F10883E001C081E0BD81B13031F4909119
:1014F0008100987F892B8093810089819A81AB81BB
:10150000BC81892B8A2B8B2B81F0D801AA0FBB1FA2
:1015100029813A814B815C810E94911528EE33E04C
:1015200040E050E00E94501503C02FEF3FEFA901AB
:101530009D81913099F0923019F19111D9C0C7BCB9
:1015400020938B0330938C0340938D0350938E0331
:1015500080916E00826080936E00CAC0D092890034
:10156000C0928800209387033093880340938903B7
:1015700050938A0380916F00826080936F00B8C09F
:10158000C092B30020938303309384034093850378
:101590005093860380917000826080937000A8C091
:1015A00068E478EE81E090E0A50194010E94721554
:1015B00069017A01A1E0CA1AD108E108F108BFEF78
:1015C000CB16D104E104F10441F138F164E274EF87
:1015D00080E090E0A50194010E94721569017A01F2
:1015E00081E0C81AD108E108F1089FEFC916D104BB
:1015F000E104F10409F008F448CF62E17AE780E001
:1016000090E0A50194010E94721569017A01A1E0A0
:10161000CA1AD108E108F10819C084E037CF9FEF5A
:10162000C916D104E104F10409F008F45FC062E1D5
:101630007AE780E090E0A50194010E9472156901AB
:101640007A0181E0C81AD108E108F1088FEFC816C5
:10165000D104E104F10499F090F0D301C2012AE031
:10166000B595A795979587952A95D1F76C017D013A
:1016700021E0C21AD108E108F10887E007CF86E02F
:1016800005CF82E003CFBFEFCB16D104E104F10414
:1016900059F150F162E17AE780E090E0A501940110
:1016A0000E94721569017A0191E0C91AD108E10816
:1016B000F108AFEFCA16D104E104F10499F090F0FB
:1016C000D301C2013AE0B595A795979587953A95CC
:1016D000D1F76C017D0121E0C21AD108E108F108BF
:1016E00085E0CECE84E0CCCE83E0CACE84E0C5CE09
:1016F0000F900F900F900F900F90DF91CF911F914F
:101700000F91FF90EF90DF90CF90BF90AF909F90A0
:101710008F907F906F905F904F900895EF92FF921F
:101720000F931F93CF93DF9300D01F92CDB7DEB7F7
:101730008DE792E00E94E1048DE792E00E94E104CF
:101740008E010F5F1F4F78018A3341F0F8018193BA
:101750008F018DE792E00E94E104F6CFC7010E945D
:101760002A15182F8DE792E00E94E104BC0177272B
:10177000605371096230710530F4812F0E946C064C
:1017800002C08D3031F08DE792E00E94E1048A3092
:10179000C1F78DE792E00E94F5048A3021F48DE7CD
:1017A00092E00E94E1040F900F900F900F90DF9154
:1017B000CF911F910F91FF90EF900895789484B589
:1017C000826084BD84B5816084BD85B5826085BD3D
:1017D00085B5816085BD80916E00816080936E00CB
:1017E00010928100809181008260809381008091BD
:1017F000810081608093810080918000816080936E
:1018000080008091B10084608093B1008091B0002D
:1018100081608093B00080919100826080939100FC
:10182000809191008160809391008091900081600F
:10183000809390008091A10082608093A1008091AC
:10184000A10081608093A1008091A00081608093BD
:10185000A00080912101826080932101809121016B
:10186000816080932101809120018160809320011B
:1018700080917A00846080937A0080917A008260FF
:1018800080937A0080917A00816080937A008091C1
:101890007A00806880937A001092C10010925C03F5
:1018A00010925D0310925E0310925F0310921C036E
:1018B00010921D0310921E0310921F030E943A07FC
:1018C0006B017C014B015C0128EB820E2BE0921E28
:1018D000A11CB11C0E943A076C157D058E059F0561
:1018E00028F086169706A806B906A0F768EE73E0FA
:1018F00080E090E00E9400070E948D030E943A075A
:1019000060931C0370931D0380931E0390931F0329
:1019100084E292E00E94C0040E943A076B017C01BD
:101920004B015C013AE0830E911CA11CB11C0E948A
:101930003A076C157D058E059F0528F086169706DB
:10194000A806B906A0F781E0809330030E943A0709
:1019500060931C0370931D0380931E0390931F03D9
:1019600085E392E00E94C00480915D02833008F01C
:1019700083C096E390938103E82FF0E0E45BFD4F92
:10198000E491E09382038F5F80935D02E13009F47C
:101990004CC050F1E23009F072C01092B0001092C9
:1019A000B1008091B00082608093B0008091B1005E
:1019B00081608093B1008091810390E0FC01ED573C
:1019C000FD4FE491F0E0EE0FFF1FE15BFD4F25912D
:1019D00034913093560220935502FC01E753FD4F9A
:1019E000E491E09354024BC014BC15BC84B58260F2
:1019F00084BD85B5816085BD8091810390E0FC0147
:101A0000ED57FD4FE491F0E0EE0FFF1FE15BFD4F5E
:101A10002591349130935C0220935B02FC01E753E3
:101A2000FD4FE491E0935A022AC010928000109278
:101A30008100809181008860809381008091810085
:101A40008160809381008091810390E0FC01ED57DB
:101A5000FD4FE491F0E0EE0FFF1FE15BFD4F25919C
:101A600034913093590220935802FC01E753FD4F03
:101A7000E491E093570203C08FEF809382030E94AA
:101A80008D0382E00E94D602C2E08C2F0E94B70232
:101A9000CF5FC830D1F7C6E18C2F0E94B702CF5F6D
:101AA000CF32D1F70E9427090E943A070E943A07D5
:101AB0006093750270937602809377029093780218
:101AC000C2E08C2E912CD4E02D2E312C0E943A07AE
:101AD000672B682B692B39F40E943A076230710535
:101AE0008105910568F10E943A07009179021091F1
:101AF0007A0220917B0230917C0260177107820785
:101B0000930740F46093790270937A0280937B028A
:101B100090937C020091790210917A0220917B02CD
:101B200030917C026B017C01C01AD10AE20AF30AEF
:101B300048EEC41643E0D406E104F10408F0BDC544
:101B40000E943A0700917502109176022091770267
:101B500030917802DC01CB01801B910BA20BB30BFF
:101B600081319742A105B10598F10E943A0760932F
:101B70007502709376028093770290937802C091F9
:101B80007302D09174022196D0937402C0937302B1
:101B90008091820387FD08C048EC50E060E070E06F
:101BA00088EE93E00E94AB090E942709809182038E
:101BB00087FD08C044E650E060E070E088E592E010
:101BC0000E94AB092C9724F01092740210927302B9
:101BD00080917B00877F80937B0082E480937C00F0
:101BE00080917A00806480937A0080917A0086FDEB
:101BF000FCCFA091780080917900B0E0B82B22EC66
:101C000031E00E94CF1520E034E040E050E00E9437
:101C1000721529013A0182E3480E511C611C711CA6
:101C20005092010240920002E0917302F09174021E
:101C3000ED30F10508F03EC58827EE58FF4F8F4F75
:101C40000C94C715C2E061E08C2F0E946C06CF5F38
:101C5000C730C9F760E087E00E946C06C6E160E02B
:101C60008C2F0E946C06CF5FCE32C9F723C510922D
:101C70005F0210925E02C0915E02D0915F02C2309C
:101C8000D1050CF08EC00E9427092097F1F0C130D9
:101C9000D10509F07AC060E087E00E946C0660E040
:101CA0008AE10E946C0660E08FE10E946C0660E0B1
:101CB00084E20E946C0660E089E20E946C0661E0AA
:101CC00086E00E946C0619E119C060E070E080E0D7
:101CD00090E00E94BF0364E070E080E090E00E942A
:101CE000BF0360E070E084E090E00E94BF0364E026
:101CF00070E084E090E00E94BF0347C060E0812F65
:101D00000E946C061B5F1233C9F761E086E00E94F7
:101D10006C0619E160E0812F0E946C061B5F123394
:101D2000C9F761E082E00E946C0660E087E00E94F3
:101D30006C0660E08AE10E946C0660E08FE10E9420
:101D40006C0660E084E20E946C0660E089E20E941A
:101D50006C0661E082E00E946C0660E070E080E06A
:101D600090E00E94D70364E070E080E090E00E9481
:101D7000D70360E070E084E090E00E94D70364E065
:101D800070E084E090E00E94D7036AE070E080E0B9
:101D900090E00E9400072196D0935F02C0935E02FC
:101DA0006ACF10925F0210925E0284C410926102A8
:101DB00010926002C0916002D0916102C230D105E0
:101DC0000CF078C40E942709209799F417E160E08D
:101DD000812F0E946C061B5F1033C9F761E084E01D
:101DE0000E946C0662E070E082E090E00E94D703FF
:101DF00006C062E070E082E090E00E94BF036AE00B
:101E000070E080E090E00E9400072196D09361028C
:101E1000C0936002CFCFC1E0D0E001E010E0EE243B
:101E2000E394F12CA701B801CE010E94B5039FEF06
:101E3000E91AF90AA4E0EA16F104A1F70F5F1F4FAF
:101E40000430110561F72196C430D10531F732C451
:101E50000E942709C0916202D0916302C430D1056B
:101E6000D4F4CE018E010F5F1F4FD7FDC8019595A9
:101E7000879591958195910963E070E003960E94A2
:101E8000BF0360E070E0CE010E94BF0310936302C5
:101E90000093620244C0C830D1058CF4CE016AEFD1
:101EA0007FEF0E94B3156D5F7F4F81E090E00E944D
:101EB000BF03BE016450710984E090E029C0CC30BA
:101EC000D10594F4CE016AE070E00E94B315CB0115
:101ED00061E070E001960E94BF0364E070E08CE076
:101EE00090E08C1B9D0B14C0C031D105C4F4CE0111
:101EF0006EE070E00E94B3156F5F7F4F83E090E06B
:101F00000E94BF0360E170E06C1B7D0B80E090E0FD
:101F10000E94BF032196D0936302C0936202809116
:101F2000620290916302409709F0B9C11092630276
:101F300010926202B4C1C0E0D0E000E010E07E0187
:101F4000B1E0EB22FF24BE01E114F10411F4C80159
:101F500003C0C101801B910B0E94BF03C301B201EA
:101F60000E9400070F5F1F4F0530110561F7219692
:101F7000C530D10511F7C6E060E08C2F0E946C06D9
:101F8000C301B2010E940007C150C130A9F7B2C01D
:101F90001092650210926402C0916402D0916502B1
:101FA000C430D1050CF049C00E94270962E070E0FE
:101FB00082E090E00E94D703C130D105E9F05CF4E3
:101FC000209789F563E070E082E090E00E94D703FB
:101FD00064E070E024C0C230D105C9F0C330D1053F
:101FE00011F562E070E081E090E00E94D70362E0CA
:101FF00070E080E090E015C062E070E083E090E087
:102000000E94D70362E070E084E090E00AC061E0E3
:1020100070E082E090E00E94D70360E070E082E030
:1020200090E00E94D703C301B2010E9400072196ED
:10203000D0936502C0936402AFCF109265021092F4
:10204000640238C380916C0281111BC00E94D314BA
:1020500025E030E040E050E00E9472157093690284
:10206000609368020E94D31425E030E040E050E025
:102070000E94721570936B0260936A0281E08093F4
:102080006C021092670210926602C0916602D091B3
:102090006702CA30D10564F5C530D10574F460918A
:1020A0006A0270916B02A1014C1B5D0B809168026A
:1020B000909169020E94B50305C060E08C2F8350A7
:1020C0000E946C06609100027091010277FF02C0CD
:1020D0006F5F7F4F75956795072E000C880B990BE6
:1020E0000E9400072196D0936702C0936602CDCF6D
:1020F00010926C020E942709DDC2C0E0D0E0CE0140
:102100000E941F04CE010E947204C301B2010E940A
:1021100000070E9427092196C530D10581F7C4E048
:10212000D0E0CE010E941F04CE010E947204C301C0
:10213000B2010E9400070E942709219790F7BAC2B6
:1021400010926E0210926D02C0916D02D0916E02DB
:10215000C132D1050CF06DC00E942709C132D105F2
:1021600008F04BC0FE018827E158FF4F8F4F0C94B9
:10217000C71544E050E00BC040E050E008C041E02B
:1021800050E005C042E050E002C043E050E062E0B1
:1021900070E080E090E02FC044E050E015C044E0E3
:1021A00050E00BC043E050E008C042E050E005C002
:1021B00041E050E002C040E050E062E070E083E0C7
:1021C00090E019C040E050E062E070E082E090E012
:1021D00012C040E050E00BC041E050E008C042E0D7
:1021E00050E005C043E050E002C044E050E062E04F
:1021F00070E081E090E00E94B50362E370E080E06F
:1022000090E00E940007CC30D10539F464EF71E012
:1022100080E090E00E94000706C0C531D105B1F30F
:10222000C032D10599F32196D0936E02C0936D020E
:102230008BCF10926E0210926D023CC2C0E0D0E0D3
:102240000E942709C230D10579F1C330D105D9F0F8
:10225000C130D10529F082E090E00E94720428C0CC
:10226000C0E0D0E0BE01CE010E94BF032196C53080
:10227000D105C1F7C301B2010E9400070E942709DE
:10228000C2E0D0E011C0C0E0D0E0B1016C1B7D0B1A
:10229000CE010E94BF032196C530D105B1F7C3011D
:1022A000B2010E94000706C282E090E00E941F0473
:1022B000C301B2010E9400072196C430D10509F084
:1022C000BFCFF8C11092700210926F02620157FEE8
:1022D00003C03FEFC31AD30AD594C7940D2C000C4A
:1022E000EE08FF0800916F0210917002083011058E
:1022F0000CF0A6C00E942709E801A8014F5F5F4FBC
:102300003A0117FDEA01D595C795C130D10509F409
:102310004AC01CF5CD2B09F08EC0C801B4010E9443
:10232000B315EC015C0152E0A50EB11CAC0160E0FC
:1023300070E0C5010E94B50384010C1B1D0BAE01AA
:10234000B80180E090E00E94B503AE0164E070E067
:10235000C5010E94B503AE0165C0C230D10509F4C4
:1023600042C0239709F067C0C801B4010E94B315A9
:102370008C01E401C81BD90BAE0160E070E00E9443
:10238000B5035101A01AB10AAE01B50180E090E099
:102390000E94B503AE0164E070E0C8010E94B5037D
:1023A000AE01B50140C0C801B4010E94B315EC01F3
:1023B0008C010E5F1F4F5101A81AB90AA80160E0F5
:1023C00070E0C5010E94B503A801BE0180E090E065
:1023D0000E94B503A80164E070E0C5010E94B50346
:1023E000A801BE0120C0C801BE010E94B3158C0126
:1023F0005101A81AB90AC81BD90BA50160E070E009
:10240000CE010E94B5030E5F1F4FA501B80180E009
:1024100090E00E94B503A50164E070E0CE010E9447
:10242000B503A501B80184E090E00E94B503C7019F
:10243000B6010E9400077092700260926F0252CF44
:102440001092700210926F0235C1109272021092B7
:102450007102620157FE03C08FEFC81AD80AD594E3
:10246000C7940D2C000CEE08FF08C0917102D091AA
:102470007202C032D1050CF019C10E942709CE01A9
:10248000D7FD079653E0959587955A95E1F78E010C
:102490000F5F1F4F8130910509F4B9C01CF4892BDF
:1024A00041F0FBC082309105E1F1039709F474C05B
:1024B000F4C0BE01D7FDB80175956795613071050F
:1024C000F9F06CF4672B09F0E8C0CE01B4010E946A
:1024D000B315A101481B590B62E070E083C0623064
:1024E0007105C1F06330710509F0D7C0CE01B401A8
:1024F0000E94B315AC014E5F5F4F62E070E085C093
:10250000CE01B4010E94B315A401481B590B62E02F
:1025100070E0C1C0CE010E94B315AC0162E070E072
:102520009BC0CE01D7FDC80195958795893091054F
:10253000E1F064F4089709F0B0C0CE01B4010E9444
:10254000B315A101481B590BB40121C08A30910574
:10255000A9F00B9709F0A1C0CE01B4010E94B315F8
:10256000AC014E5F5F4FB10112C0CE01B4010E94B9
:10257000B315A401481B590BBC010BC0CE01B4011B
:102580000E94B315BC016E5F7F4FAC0102C0681B97
:10259000790B82E090E07FC0CE01D7FDC801959510
:1025A00087958D30910501F174F40C9709F075C091
:1025B000CE01B4010E94B315A101481B590BBC0107
:1025C0006E5F7F4F0FC08E309105B1F00F9709F00D
:1025D00064C0CE01B4010E94B315AC014E5F5F4FE1
:1025E000BC0113C0D40143C0CE01B4010E94B31595
:1025F000A401481B590B4CC0CE01B4010E94B31575
:10260000B401681B790BAC0127C091013DC09E014C
:10261000D7FD98013595279525303105F9F074F4EB
:1026200024303105D1F5CE01B4010E94B315A901C2
:10263000481B590BB401681B790B0EC026303105BD
:10264000D1F02730310549F5CE01B4010E94B31510
:10265000AC014E5F5F4F1CC002961DC0CE01B4019D
:102660000E94B315A401481B590BBC01D101A81B42
:10267000B90BCD0110C0CE01B4010E94B315BC014D
:102680006E5F7F4FAC019401281B390BC90103C059
:10269000B101681B790B0E94B503C701B6010E9406
:1026A00000071093720200937102DFCE1092720243
:1026B000109271020E94AA0509CA60937902709370
:1026C0007A0280937B0290937C0284EF91E0A0E0F9
:1026D000B0E08093280390932903A0932A03B0933A
:1026E0002B0310922C0310922D0310922E031092A4
:1026F0002F038091200390912103A0912203B09198
:1027000023038093240390932503A0932603B0937F
:1027100027030E943A07609320037093210380935C
:102720002203909323038DE792E00E94F504843600
:1027300011F40E948E0B0E943A0760931C03709361
:102740001D0380931E0390931F030E943A076B01A1
:102750007C018CE392E00E94C0044AE061E070E0FA
:1027600080E090E00E946A0983E492E00E94C00445
:102770004AE0C701B6010E946A0985E492E00E941E
:10278000C0048091200390912103A0912203B09175
:102790002303A7019601281B390B4A0B5B0BCA01C7
:1027A000B9014AE00E946A0985E492E00E94C004EF
:1027B0008091200390912103A0912203B0912303E3
:1027C00000912403109125032091260330912703C3
:1027D000BC01CD01601B710B820B930B4AE00E9480
:1027E0006A0987E492E00E94C0040E943A074AE026
:1027F0000E946A0989E492E00E94C00480E592E0A8
:102800000E94C0040E943A076B017C012B013C012D
:1028100035E0430E511C611C711C0E943A076C1577
:102820007D058E059F0528F0461657066806790631
:10283000A0F78DE792E00E94F504843611F40E941F
:102840008E0B0E943A0760932003709321038093BC
:1028500022039093230374C9EDE7F2E013821282FE
:1028600088EE93E0A0E0B0E084839583A683B783ED
:102870008AE092E09183808385EC90E0958784875D
:1028800084EC90E09787868780EC90E0918B808B3A
:1028900081EC90E0938B828B82EC90E0958B848B23
:1028A00086EC90E0978B868B118E128E138E148E91
:1028B000EAE1F3E0168217821086118612861386EB
:1028C0001486158616861786108A118A128A138A2C
:1028D000148A158AE0E6F3E0138212828CE192E01A
:1028E0009183808385E384838FEF858384E386836C
:1028F00083E3878382E3808781E3818780E3828724
:102900001386148615861686178681E00C94D602E7
:102910008F929F92AF92BF92CF92DF92EF92FF92EF
:10292000CF93DF93EC01688179818A819B81611566
:1029300071058105910521F464E279ED8BE597E05D
:102940002DE133EF41E050E00E94721549015A0138
:102950009B01AC01A7EAB1E40E9491156B017C01D7
:10296000ACEEB4EFA50194010E949F15DC01CB01F0
:102970008C0D9D1DAE1DBF1DB7FF03C00197A109A2
:10298000B04888839983AA83BB83BC01CD019F771C
:10299000DF91CF91FF90EF90DF90CF90BF90AF90FD
:1029A0009F908F9008958F929F92AF92BF92CF92F7
:1029B000DF92EF92FF926091020270910302809188
:1029C000040290910502611571058105910521F4BC
:1029D00064E279ED8BE597E02DE133EF41E050E0E3
:1029E0000E94721549015A019B01AC01A7EAB1E4AA
:1029F0000E9491156B017C01ACEEB4EFA50194012E
:102A00000E949F15DC01CB018C0D9D1DAE1DBF1DCD
:102A1000B7FF03C00197A109B048809302029093C9
:102A20000302A0930402B0930502BC01CD019F777D
:102A3000FF90EF90DF90CF90BF90AF909F908F90DE
:102A400008956093020270930302809304029093AE
:102A500005020895FC0188279927E89421912032E6
:102A6000E9F3293010F02E30C8F32B3241F02D322B
:102A700039F4689404C00E944815820F911D219179
:102A800020532A30C0F31EF4909581959F4F0895EE
:102A90007AE0979F902D879F802D910D11240895A6
:102AA000A1E21A2EAA1BBB1BFD010DC0AA1FBB1F52
:102AB000EE1FFF1FA217B307E407F50720F0A21BC4
:102AC000B30BE40BF50B661F771F881F991F1A9431
:102AD00069F760957095809590959B01AC01BD015B
:102AE000CF010895052E97FB1EF400940E948915CE
:102AF00057FD07D00E94501507FC03D04EF40C94EC
:102B0000891550954095309521953F4F4F4F5F4F18
:102B1000089590958095709561957F4F8F4F9F4F49
:102B200008950E94A415A59F900DB49F900DA49F99
:102B3000800D911D11240895B7FF0C9491150E94EA
:102B40009115821B930B0895A29FB001B39FC00102
:102B5000A39F700D811D1124911DB29F700D811DC9
:102B60001124911D089597FB072E16F4009407D0A9
:102B700077FD09D00E94D61507FC05D03EF490954C
:102B800081959F4F0895709561957F4F0895EE0F41
:102B9000FF1F881F8BBF0790F691E02D19940E94AC
:102BA000A415B7FF0895821B930B0895AA1BBB1BA6
:102BB00051E107C0AA1FBB1FA617B70710F0A61B3D
:102BC000B70B881F991F5A95A9F780959095BC015E
:102BD000CD01089581E090E0F8940C94EF15F894FD
:102BE000FFCFF40101000000000000003B053E099A
:102BF000D20488050305E104F50400000000100874
:102C00003E0909060806564D4450565F317C315F37
:102C1000564D4450560A00564D4450525F00564D92
:102C20004450455F003A323A007C005F564D4450B4
:062C300045000D0A000042
:020000040003F7
:10E000000D9489F10D94B2F10D94B2F10D94B2F129
:10E010000D94B2F10D94B2F10D94B2F10D94B2F1F0
:10E020000D94B2F10D94B2F10D94B2F10D94B2F1E0
:10E030000D94B2F10D94B2F10D94B2F10D94B2F1D0
:10E040000D94B2F10D94B2F10D94B2F10D94B2F1C0
:10E050000D94B2F10D94B2F10D94B2F10D94B2F1B0
:10E060000D94B2F10D94B2F10D94B2F10D94B2F1A0
:10E070000D94B2F10D94B2F10D94B2F10D94B2F190
:10E080000D94B2F10D94B2F10D94B2F10D94B2F180
:10E090000D94B2F10D94B2F10D94B2F10D94B2F170
:10E0A0000D94B2F10D94B2F10D94B2F10D94B2F160
:10E0B0000D94B2F10D94B2F10D94B2F10D94B2F150
:10E0C0000D94B2F10D94B2F10D94B2F10D94B2F140
:10E0D0000D94B2F10D94B2F10D94B2F10D94B2F130
:10E0E0000D94B2F141546D656761323536300041AF
:10E0F000726475696E6F206578706C6F72657220DE
:10E1000073746B3530305632206279204D4C530099
:10E11000426F6F746C6F616465723E004875683F52
:10E1200000436F6D70696C6564206F6E203D200048
:10E130004350552054797065202020203D20005FF9
:10E140005F4156525F415243485F5F3D2000415658
:10E1500052204C696243205665723D20004743437C
:10E160002056657273696F6E203D20004350552024
:10E1700049442020202020203D20004C6F7720663D
:10E18000757365202020203D20004869676820665F
:10E190007573652020203D200045787420667573D6
:10E1A00065202020203D20004C6F636B2066757336
:10E1B000652020203D20004D617220203720323024
:10E1C000313300312E362E3800342E332E350056A2
:10E1D00023202020414444522020206F7020636F70
:10E1E00064652020202020696E73747275637469E1
:10E1F0006F6E2061646472202020496E74657272B3
:10E20000757074006E6F20766563746F7200726A49
:10E210006D702020006A6D70200057686174207056
:10E220006F72743A00506F7274206E6F7420737541
:10E2300070706F72746564004D7573742062652030
:10E2400061206C6574746572002000577269747483
:10E25000696E672045450052656164696E672045B7
:10E26000450045452065727220636E743D00504F35
:10E27000525400303D5A65726F2061646472003FF1
:10E280003D43505520737461747300403D454550C3
:10E29000524F4D207465737400423D426C696E6B41
:10E2A000204C454400453D44756D70204545505215
:10E2B0004F4D00463D44756D7020464C415348001B
:10E2C000483D48656C70004C3D4C69737420492F83
:10E2D0004F20506F72747300513D51756974005234
:10E2E0003D44756D702052414D00563D73686F7707
:10E2F00020696E7465727275707420566563746FF0
:10E30000727300593D506F727420626C696E6B00BD
:10E310002A0011241FBECFEFD1E2DEBFCDBF01E046
:10E320000CBF12E0A0E0B2E0EEE1FDEF03E00BBFB6
:10E3300002C007900D92A030B107D9F712E0A0E01B
:10E34000B2E001C01D92AE30B107E1F70F9460F367
:10E350000D948DFE01E20EBF0FEF0DBF11241FBE05
:10E360000D9460F30D9400F020E030E040ED57E0B4
:10E3700005C0FA013197F1F72F5F3F4F2817390792
:10E38000C0F308959C01260F311DC901A0E0B0E043
:10E390002F5F3F4FABBFFC018791882361F08093D3
:10E3A000C6008091C00086FFFCCF8091C0008064D1
:10E3B0008093C000EACF08958DE08093C6008091DD
:10E3C000C00086FFFCCF8091C00080648093C000B5
:10E3D0008AE08093C6008091C00086FFFCCF8091C8
:10E3E000C00080648093C00008950F94C2F10F9420
:10E3F000DCF10895FC019081992359F09093C600B7
:10E400008091C00086FFFCCF8091C0008064809323
:10E41000C0003196992379F70895282F982F929567
:10E420009F70892F805D8A3308F0895F8093C600D2
:10E430008091C00086FFFCCF8091C00080648093F3
:10E44000C000822F8F70982F905D9A3308F0995FEB
:10E450009093C6008091C00086FFFCCF8091C000E1
:10E4600080648093C00008959C01FB01853691056E
:10E470001CF46330710594F0C90164E670E00F94F8
:10E480002EFE605D7F4F6093C6008091C00086FFC6
:10E49000FCCF8091C00080648093C0002B30310598
:10E4A00014F43297B4F0C90164E670E00F942EFEC4
:10E4B0006AE070E00F942EFE605D7F4F6093C600AF
:10E4C0008091C00086FFFCCF8091C0008064809363
:10E4D000C000C9016AE070E00F942EFEC0968093E0
:10E4E000C6008091C00086FFFCCF8091C000806490
:10E4F0008093C00008951F93182F8EE692EE60E07F
:10E500000F94C2F11093C6008091C00086FFFCCF2B
:10E510008091C00080648093C0000F94DCF11F9153
:10E5200008952F923F924F925F926F927F928F92B7
:10E530009F92AF92BF92CF92DF92EF92FF920F9392
:10E540001F93DF93CF93CDB7DEB762970FB6F894E2
:10E55000DEBF0FBECDBF382E622ECA01DB015C01CB
:10E560006D01772420E2222E2E010894411C511CBB
:10E570008BC081E0A81680E0B80681E0C80680E084
:10E58000D80628F0C601AA27BB270F940DF2BB2797
:10E59000AD2D9C2D8B2D0F940DF28A2D0F940DF225
:10E5A0002092C6008091C00086FFFCCF8091C00001
:10E5B00080648093C0009DE29093C6008091C0006B
:10E5C00086FFFCCF8091C00080648093C0002092C1
:10E5D000C6008091C00086FFFCCF8091C00080649F
:10E5E0008093C00019828601750188249924A1E0D6
:10E5F0003A1651F03A1620F0B2E03B1661F409C029
:10E600000BBFF701779007C0C7010F9477FE782EF4
:10E6100002C0F7017080872D0F940DF22092C60082
:10E620008091C00086FFFCCF8091C0008064809301
:10E63000C000872D8052F401EF70F0708F3520F408
:10E64000E40DF51D708204C0E40DF51D8EE280839B
:10E650000894E11CF11C011D111D0894811C911CE2
:10E6600090E18916910409F0C2CF80E190E0A0E02A
:10E67000B0E0A80EB91ECA1EDB1E198AC2010F9493
:10E68000FAF10F94DCF16A94662009F072CF629679
:10E690000FB6F894DEBF0FBECDBFCF91DF911F91B3
:10E6A0000F91FF90EF90DF90CF90BF90AF909F9031
:10E6B0008F907F906F905F904F903F902F90089534
:10E6C0002F923F924F925F926F927F928F929F9282
:10E6D000AF92BF92CF92DF92EF92FF920F931F9370
:10E6E000DF93CF93CDB7DEB7CD53D1400FB6F894BB
:10E6F000DEBF0FBECDBF01E20EBF0FEF0DBF94B75F
:10E70000F894A89514BE80916000886180936000A1
:10E7100010926000789493FF05C0E0910002F091A0
:10E7200001021995279A2F9A8091C00082608093E8
:10E73000C00080E18093C40088E18093C1000000A4
:10E74000EE24FF24870144E0A42EB12CCC24DD2448
:10E7500024C0C5010197F1F70894E11CF11C011DCB
:10E76000111D21E2E2162EE4F20620E0020720E06D
:10E77000120718F031E0C32ED12CC801B70127ECE5
:10E780003BE140E050E00F9441FE611571058105C9
:10E79000910519F485B1805885B98091C00087FD35
:10E7A00003C0C114D104A9F2A6014F5F5F4FC25E3E
:10E7B000DE4F59834883CE51D140C25EDE4F8881FF
:10E7C0009981CE51D140019711F00D9410FEC05D9A
:10E7D000DE4F19821882C053D14060E0C15DDE4F28
:10E7E0001882CF52D14088249924C35DDE4F19820C
:10E7F0001882CD52D140C05EDE4F188219821A8233
:10E800001B82C052D140CE5CDE4F188219821A8220
:10E810001B82C253D140EE24FF2487010BBFF701B6
:10E8200007911691C45CDE4F19830883CC53D14005
:10E830000D940BFEC25EDE4F28813981CE51D1404E
:10E840002130310509F52091C600C25EDE4F1982E4
:10E850001882CE51D14022C02F5F3F4F4F4F5F4FA4
:10E86000213082E138078AE7480780E0580780F0C6
:10E87000C45CDE4FE881F981CC53D140EF5FFF4F9C
:10E8800019F0EE27FF27099420E030E040E050E047
:10E890008091C00087FFE0CF2091C600C35DDE4FAE
:10E8A00048815981CD52D1404F5F5F4FC35DDE4FEC
:10E8B00059834883CD52D140213209F063C64A3092
:10E8C000510508F05FC60894811C911C53E0851621
:10E8D000910409F059C600E010E018C081E280936D
:10E8E000C6008091C00086FFFCCF8091C00080648C
:10E8F0008093C0002F5F3F4F2931310579F70F9486
:10E90000DCF10F5F1F4F0530110519F020E030E0FA
:10E91000E5CF10920A0210920B0210920C02109294
:10E920000D02109206021092070210920802109235
:10E930000902109202021092030210920402109235
:10E9400005028FEE90EE60E00F94F5F180E191EE1C
:10E9500060E00F94C2F18091C00087FFFCCF9091DE
:10E96000C600903608F09F759032B8F09093C600BC
:10E970008091C00086FFFCCF8091C00080648093AE
:10E98000C000A0E2A093C6008091C00086FFFCCF2B
:10E990008091C00080648093C000983409F4D7C18E
:10E9A0009934B8F4923409F459C1933458F490333B
:10E9B00019F1903308F4E3C59F33A1F1903409F0C5
:10E9C000DEC5BDC0953409F470C1963409F0D7C5D1
:10E9D00098C1923509F42BC2933538F49C3409F46C
:10E9E000F5C1913509F0CBC518C2963509F445C279
:10E9F000993509F0C4C567C483E792EE62E00F94CD
:10EA0000F5F110920602109207021092080210927D
:10EA1000090210920A0210920B0210920C0210923C
:10EA20000D0213C18FE792EE62E00F94F5F18FEEC5
:10EA300090EE60E00F94F5F181E291EE60E00F94CA
:10EA4000C2F187EB91EE60E00F94F5F180E391EE77
:10EA500060E00F94C2F184EE90EE60E00F94F5F167
:10EA60008FE391EE60E00F94C2F186E090E061E008
:10EA700070E00F9434F20F94DCF18DE591EE60E0DC
:10EA80000F94C2F189EC91EE60E00F94F5F18EE401
:10EA900091EE60E00F94C2F183EC91EE60E00F9490
:10EAA000F5F18CE691EE60E00F94C2F18EE10F94E7
:10EAB0000DF288E90F940DF281E00F940DF20F949E
:10EAC000DCF18BE791EE60E00F94C2F119E0E0E039
:10EAD000F0E010935700E4918E2F0F940DF20F94F5
:10EAE000DCF18AE891EE60E00F94C2F1E3E0F0E03F
:10EAF00010935700E4918E2F0F940DF20F94DCF1D8
:10EB000089E991EE60E00F94C2F1E2E0F0E0109349
:10EB10005700E4918E2F0F940DF20F94DCF188EAE8
:10EB200091EE60E00F94C2F1E1E0F0E01093570045
:10EB30001491812F0F940DF20F94DCF107CF8BE825
:10EB400092EE62E00F94F5F18BE492EE60E00F94A8
:10EB5000F5F10F94DCF100E010E019C0C8016F2D51
:10EB60000F947FFEFF2031F489E492EE60E00F9471
:10EB7000C2F10BC0F092C6008091C00086FFFCCFAE
:10EB80008091C00080648093C0000F5F1F4FC80158
:10EB900081519F41A0E0B0E0ABBFFC01F790BAE229
:10EBA000FB1621F0E2E000301E07C1F60F94DCF105
:10EBB0000F94DCF187E592EE60E00F94F5F10F948D
:10EBC000DCF1CC24DD2400E010E01EC0C8010F946D
:10EBD00077FEF82E882331F489E492EE60E00F94FA
:10EBE000C2F10BC08093C6008091C00086FFFCCFAD
:10EBF0008091C00080648093C000FE1419F00894D6
:10EC0000C11CD11C0F5F1F4FC80181519F41A0E063
:10EC1000B0E0ABBFFC01E790FAE2EF1621F022E092
:10EC20000030120799F60F94DCF10F94DCF182E6C4
:10EC300092EE60E00F94C2F1C60161E070E00F94C3
:10EC400034F20F94DCF10F94DCF110920202109276
:10EC50000302109204021092050278CE89E992EE26
:10EC600062E00F94F5F1279A2F9A16C02F9880E052
:10EC700090E0E0EDF7E03197F1F7019684369105E9
:10EC8000C1F72F9A80E090E0E0EDF7E03197F1F7DF
:10EC9000019684369105C1F78091C00087FFE6CFC9
:10ECA0008091C00087FFFCCF64C485EA92EE62E0E9
:10ECB0000F94F5F140910202509103026091040219
:10ECC0007091050281E020E10F9491F2809102029F
:10ECD00090910302A0910402B091050280509F4FD1
:10ECE000AF4FBF4F8093020290930302A0930402A0
:10ECF000B093050280509041A040B04008F426CE69
:10ED0000A4CF83EB92EE62E00F94F5F140910602FE
:10ED100050910702609108027091090280E020E1A1
:10ED20000F9491F28091060290910702A09108023F
:10ED3000B091090280509F4FAF4FBF4F80930602A2
:10ED400090930702A0930802B0930902FFCD80ECD4
:10ED500092EE62E00F94F5F183E792EE60E00F949B
:10ED6000F5F18FE792EE60E00F94F5F18BE892EE0B
:10ED700060E00F94F5F189E992EE60E00F94F5F10F
:10ED800085EA92EE60E00F94F5F183EB92EE60E09D
:10ED90000F94F5F180EC92EE60E00F94F5F187ECC2
:10EDA00092EE60E00F94F5F188ED92EE60E00F9442
:10EDB000F5F18FED92EE60E00F94F5F18AEE92EEB0
:10EDC00060E00F94F5F183E093EEBDCD87EC92EE19
:10EDD00062E00F94F5F181E40F947BF282E40F94EA
:10EDE0007BF283E40F947BF284E40F947BF285E45E
:10EDF0000F947BF286E40F947BF287E40F947BF20E
:10EE000088E40F947BF28AE40F947BF28BE40F94F6
:10EE10007BF28CE40F947BF299CD88ED92EE62E068
:10EE20000F94F5F1772473948824992409C48FED05
:10EE300092EE62E00F94F5F140910A0250910B02BC
:10EE400060910C0270910D0282E020E10F9491F22A
:10EE500080910A0290910B02A0910C02B0910D02D8
:10EE600080509F4FAF4FBF4F80930A0290930B0289
:10EE7000A0930C02B0930D0269CD8AEE92EE62E08F
:10EE80000F94F5F184EE90EE60E00F94F5F18FECC5
:10EE900091EE60E00F94F5F1662477244301CC5D98
:10EEA000DE4F19821882C452D140D401C301B695F5
:10EEB000A79597958795CA5DDE4F88839983AA8326
:10EEC000BB83C652D140CC5DDE4FA881B981C4520C
:10EED000D1401196CC5DDE4FB983A883C452D14096
:10EEE000CD0162E070E00F9434F2B0E2B093C6005E
:10EEF0008091C00086FFFCCF8091C0008064809329
:10EF0000C000EDE2E093C6008091C00086FFFCCF18
:10EF10008091C00080648093C000F0E2F093C6004E
:10EF20008091C00086FFFCCF8091C00080648093F8
:10EF3000C000CA5DDE4FE880F9800A811B81C6529D
:10EF4000D140BB27A12F902F8F2D0F940DF2CA5DBA
:10EF5000DE4F8881C652D1400F940DF2B0E2FB2EF5
:10EF6000F092C6008091C00086FFFCCF8091C00067
:10EF700080648093C0000DE30093C6008091C000C0
:10EF800086FFFCCF8091C00080648093C00010E2B7
:10EF90001093C6008091C00086FFFCCF8091C00016
:10EFA00080648093C0008BBEF3012791C65DDE4F65
:10EFB0002883CA52D140A22EBB24CC24DD2408943D
:10EFC000611C711C811C911C8BBEF3018791282E42
:10EFD0003324442455240894611C711C811C911C09
:10EFE0008BBEF3013791C55DDE4F3883CB52D140E4
:10EFF0000894611C711C811C911C8BBEF30147910C
:10F00000C45DDE4F4883CC52D140ADEFEA2EAFEF66
:10F01000FA2EAFEF0A2FAFEF1A2F6E0C7F1C801E57
:10F02000911E142D032DF22CEE24EA0CFB1C0C1D5A
:10F030001D1D0F940DF220E22093C6008091C000A8
:10F0400086FFFCCF8091C00080648093C000C65DC5
:10F05000DE4F8881CA52D1400F940DF230E23093D6
:10F06000C6008091C00086FFFCCF8091C000806404
:10F070008093C000C45DDE4F8881CC52D1400F9494
:10F080000DF240E24093C6008091C00086FFFCCFA5
:10F090008091C00080648093C000C55DDE4F888190
:10F0A000CB52D1400F940DF250E25093C6008091A4
:10F0B000C00086FFFCCF8091C00080648093C000B8
:10F0C0008FEFE8168FEFF80680E0080780E018075A
:10F0D00031F484E092EE60E00F94C2F1DFC0D80119
:10F0E000C7018070907CA070B0708050904CA040A0
:10F0F000B040D1F52FEF3FE340E050E0E222F322B1
:10F1000004231523CA5DDE4FA880B980CA80DB8046
:10F11000C652D140AE0CBF1CC01ED11EAA0CBB1CD7
:10F12000CC1CDD1C8EE092EE60E00F94C2F1BB2798
:10F13000A12F902F8F2D0F940DF28E2D0F940DF285
:10F1400030E23093C6008091C00086FFFCCF8091F2
:10F15000C00080648093C0004EE34093C60080915D
:10F16000C00086FFFCCF87C08EE09EEFA0E0B0E03D
:10F17000E822F9220A231B239CE0E91694E9F90608
:10F1800090E0090790E0190709F088C0C45DDE4FE0
:10F19000A881CC52D140EA2EFF2400E010E0102FCD
:10F1A0000F2DFE2CEE24C55DDE4FB881CB52D14031
:10F1B000EB0EF11C011D111DD601C501817090706F
:10F1C000A070B070DC0199278827E80EF91E0A1F8D
:10F1D0001B1F20EF30E040E050E0A222B322C42207
:10F1E000D52241E1AA0CBB1CCC1CDD1C4A95D1F7F1
:10F1F000EA0CFB1C0C1D1D1D81E090E0A0E0B0E0BE
:10F20000282239224A225B2235E1220C331C441C7D
:10F21000551C3A95D1F7E20CF31C041D151D57013E
:10F220006801AA0CBB1CCC1CDD1C85E192EE60E0E1
:10F230000F94C2F1C801AA27BB270F940DF2BB2778
:10F24000A12F902F8F2D0F940DF28E2D0F940DF274
:10F2500090E29093C6008091C00086FFFCCF809121
:10F26000C00080648093C000AEE3A093C60080918C
:10F27000C00086FFFCCF8091C00080648093C000F6
:10F28000C601AA27BB270F940DF2BB27AD2D9C2DDD
:10F290008B2D0F940DF28A2D0F940DF20F94DCF14B
:10F2A000CC5DDE4FE881F981C452D140F99709F471
:10F2B0004DCBF4E0EF2EF12C012D112D6E0C7F1CA7
:10F2C000801E911EF2CD83E093EE62E00F94F5F183
:10F2D0008AE192EE60E00F94C2F18091C00087FF56
:10F2E000FCCF1091C6001F751093C6008091C0001E
:10F2F00086FFFCCF8091C00080648093C0000F9493
:10F30000DCF1812F81548A3108F036C1163409F4BA
:10F3100095C0173490F4133409F44EC0143430F40B
:10F320001134F1F0123409F01DC130C0143409F465
:10F3300059C0153409F016C16BC01A3409F4C4C0A1
:10F340001B3438F4173409F48FC0183409F00AC19B
:10F35000A1C01B3409F4D2C01C3409F003C1E8C0B9
:10F360008FEF81B90DC082B1809582B980E090E0C5
:10F37000E0EDF7E03197F1F70196883C9105C1F790
:10F380008091C00087FFEFCF12B8EFC08FEF84B934
:10F390000DC085B1809585B980E090E0E0EDF7E0A3
:10F3A0003197F1F70196883C9105C1F78091C00033
:10F3B00087FFEFCF15B8D9C08FEF87B90DC088B1DF
:10F3C000809588B980E090E0E0EDF7E03197F1F7C3
:10F3D0000196883C9105C1F78091C00087FFEFCF6F
:10F3E00018B8C3C08FEF8AB90DC08BB180958BB9A7
:10F3F00080E090E0E0EDF7E03197F1F70196883C8E
:10F400009105C1F78091C00087FFEFCF1BB8ADC059
:10F410008FEF8DB90DC08EB180958EB980E090E0F0
:10F42000E0EDF7E03197F1F70196883C9105C1F7DF
:10F430008091C00087FFEFCF1EB897C08FEF80BBD1
:10F440000DC081B3809581BB80E090E0E0EDF7E0F6
:10F450003197F1F70196883C9105C1F78091C00082
:10F4600087FFEFCF11BA81C08FEF83BB0DC084B38C
:10F47000809584BB80E090E0E0EDF7E03197F1F714
:10F480000196883C9105C1F78091C00087FFEFCFBE
:10F4900014BA6BC08FEF809301010FC080910201FD
:10F4A00080958093020180E090E0E0EDF7E03197F5
:10F4B000F1F70196883C9105C1F78091C00087FF64
:10F4C000EDCF1092020151C08FEF809304010FC065
:10F4D0008091050180958093050180E090E0E0ED4A
:10F4E000F7E03197F1F70196883C9105C1F78091DB
:10F4F000C00087FFEDCF1092050137C08FEF8093DA
:10F5000007010FC08091080180958093080180E079
:10F5100090E0E0EDF7E03197F1F70196883C910536
:10F52000C1F78091C00087FFEDCF109208011DC088
:10F530008FEF80930A010FC080910B01809580931B
:10F540000B0180E090E0E0EDF7E03197F1F70196F4
:10F55000883C9105C1F78091C00087FFEDCF1092E4
:10F560000B0103C085E292EEEEC98091C00087FFD7
:10F57000FCCF8091C600EAC988E392EEE4C98CE131
:10F5800091EEE1C988249924933011F1943028F444
:10F59000913089F09230B8F408C0953061F195301F
:10F5A000F0F0963009F048C043C02B3109F042C951
:10F5B00091E06BE13FC96227C15DDE4F2883CF52E6
:10F5C000D14092E037C9B22FA0E0622793E032C960
:10F5D000822F90E0A82BB92B622794E02BC92E3004
:10F5E00009F039C3622795E0C05DDE4F19821882A9
:10F5F000C053D1401FC9E1E0F0E0EC0FFD1FC05D3A
:10F60000DE4F08811981C053D140E00FF11F2083E4
:10F610000F5F1F4FC05DDE4F19830883C053D14079
:10F6200062270A171B0709F005C9D80196E002C92D
:10F63000261709F010C303C0973009F0FBC87724E0
:10F640009981933109F412C19431C8F4963009F4C8
:10F65000D8C0973050F4923009F406C1933009F4C1
:10F660006DC0913009F059C253C0913109F477C08F
:10F67000923108F0BBC0903109F04FC2F5C098310B
:10F6800009F487C0993150F4953109F4EFC09531F0
:10F6900008F4C6C1963109F040C2C2C19A3109F4DA
:10F6A0006CC09A3108F491C09B3109F45BC09D3164
:10F6B00009F033C29D81903359F48F81882311F46E
:10F6C0009EE11CC0813011F091E018C098E916C08D
:10F6D000892F807591F0903539F4E0E0F0E089E011
:10F6E0008093570094910AC0983539F4E3E0F0E034
:10F6F00089E080935700949101C090E01A821B82A8
:10F700008D818C831D829E831F8227E030E009C299
:10F710001A8288E08B8381E48C8386E58D8382E581
:10F720008E8389E48F8383E5888780E589878FE5E9
:10F730008A8782E38B872BE030E0F3C18A818139AD
:10F7400041F0823941F0803911F48FE005C080E04A
:10F7500003C082E001C08AE01A828B8344C0772410
:10F76000739482C08D81882311F48EE12CC0813086
:10F7700011F081E028C088E926C01A82E1E0F0E0BB
:10F7800089E08093570084918B831C8224E030E0D1
:10F79000C8C18B81803589F48C81883039F4E2E0EE
:10F7A000F0E089E08093570084910DC0E0E0F0E044
:10F7B00089E080935700849106C0E3E0F0E089E09F
:10F7C0008093570084911A82DFCF8D81836C99E0FA
:10F7D000E1E0F0E0082E90935700E89507B600FCB2
:10F7E000FDCF1A821B8223E030E09BC180EC8A832C
:10F7F000CE5CDE4F188219821A821B82C253D1401E
:10F800008EC18A8190E0A0E0B0E0582F44273327D2
:10F8100022278B8190E0A0E0B0E0DC0199278827C7
:10F82000282B392B4A2B5B2B8D8190E0A0E0B0E098
:10F83000282B392B4A2B5B2B8C8190E0A0E0B0E089
:10F84000BA2FA92F982F8827282B392B4A2B5B2BCF
:10F85000220F331F441F551FC05EDE4F288339839C
:10F860004A835B83C052D1401A8259C13A81C95C34
:10F87000DE4F3883C753D140CA5CDE4F1882C6536F
:10F88000D1408B81C82EDD24CA5CDE4F488159816E
:10F89000C653D140C42AD52A933109F082C0CE5C28
:10F8A000DE4F88819981AA81BB81C253D1408050AB
:10F8B000904CA340B04030F583E0CE5CDE4FE88052
:10F8C000F9800A811B81C253D140F70100935B008C
:10F8D00080935700E89507B600FCFDCFCE5CDE4F65
:10F8E000088119812A813B81C253D14000501F4FAA
:10F8F0002F4F3F4FCE5CDE4F088319832A833B8313
:10F90000C253D140C05EDE4F488159816A817B81FC
:10F91000C052D140DE011B9631E08C9111962C91A2
:10F9200011971296C75CDE4F2883C953D140C85C3B
:10F93000DE4F1882C853D14090E0C85CDE4FE881AA
:10F94000F981C853D1408E2B9F2B0C01FA01609393
:10F950005B0030935700E89511244E5F5F4F6F4F67
:10F960007F4F0EEFE02E0FEFF02ECE0CDF1CC114F8
:10F97000D10499F685E0C05EDE4F088119812A81A5
:10F980003B81C052D140F80120935B008093570027
:10F99000E89507B600FCFDCF81E180935700E8951C
:10F9A00035C0C05EDE4F88819981AA81BB81C0527B
:10F9B000D140B695A795979587957C018601ABE0D8
:10F9C000AA2EB12CAC0EBD1E0BC0D5016D915D01F0
:10F9D000C7010F947FFE0894E11CF11C01501040F8
:10F9E0000115110591F7A60160E070E0440F551F65
:10F9F000661F771FC05EDE4FE880F9800A811B8199
:10FA0000C052D1404E0D5F1D601F711F1A82C05E33
:10FA1000DE4F488359836A837B83C052D1407FC0C5
:10FA2000FA80C55CDE4FF882CB53D140C65CDE4F16
:10FA30001882CA53D1408B81C82EDD24C65CDE4FAC
:10FA400008811981CA53D140C02AD12A1A828981DA
:10FA5000BE016D5F7F4F843121F59601C05EDE4FA0
:10FA6000E880F9800A811B81C052D1400BBFF701A9
:10FA700087919691DB018C9311969C936E5F7F4FDB
:10FA8000D801C7010296A11DB11DC05EDE4F88835B
:10FA90009983AA83BB83C052D14022503040F1F6F3
:10FAA00036C0C05EDE4F288139814A815B81C052F9
:10FAB000D1400894C108D108760100E010E0089414
:10FAC000C11CD11C0894E11CF11C011D111DE20E8A
:10FAD000F31E041F151F21BDBB27A52F942F832FB5
:10FAE00082BD2F5F3F4F4F4F5F4FF89A80B5DB01CC
:10FAF0008D93BD012E153F054007510761F7C05E8C
:10FB0000DE4F288339834A835B83C052D1409601FC
:10FB10002D5F3F4FFB01108204C080EC8A8322E0FE
:10FB200030E08BE18093C6008091C00086FFFCCF5F
:10FB30008091C00080648093C000C15DDE4FF88179
:10FB4000CF52D140F093C6008091C00086FFFCCF19
:10FB50008091C00080648093C000432F3093C60022
:10FB60008091C00086FFFCCF8091C00080648093AC
:10FB7000C000922F2093C6008091C00086FFFCCF6A
:10FB80008091C00080648093C0008EE08093C600A6
:10FB90008091C00086FFFCCF8091C000806480937C
:10FBA000C00065E1C15DDE4FE880CF52D1406E25D7
:10FBB00069276427FE01319610C090819093C6009A
:10FBC0008091C00086FFFCCF31968091C000806498
:10FBD0008093C0006927215030402115310569F715
:10FBE0006093C6008091C00086FFFCCF8091C0006A
:10FBF00080648093C00085B1805885B9772081F4F6
:10FC0000C15DDE4F0881CF52D1400F5FC15DDE4F35
:10FC10000883CF52D14090E0A0E0B0E00D941AF4F8
:10FC200027982F9880E090E020ED37E0F901319798
:10FC3000F1F7019684369105C9F700008091C00064
:10FC40008D7F8093C00081E180935700E895EE2777
:10FC5000FF270994FFCF90E00D941AF497FB092E2B
:10FC600007260AD077FD04D02ED006D000201AF443
:10FC7000709561957F4F0895F6F7909581959F4F08
:10FC80000895A1E21A2EAA1BBB1BFD010DC0AA1FDD
:10FC9000BB1FEE1FFF1FA217B307E407F50720F0F5
:10FCA000A21BB30BE40BF50B661F771F881F991F70
:10FCB0001A9469F760957095809590959B01AC01B9
:10FCC000BD01CF010895AA1BBB1B51E107C0AA1FAC
:10FCD000BB1FA617B70710F0A61BB70B881F991FED
:10FCE0005A95A9F780959095BC01CD010895F99991
:10FCF000FECF92BD81BDF89A992780B50895262F31
:10FD0000F999FECF1FBA92BD81BD20BD0FB6F89400
:0EFD1000FA9AF99A0FBE01960895F894FFCF63
:00000001FF
